:020000041000EA
:1000000000B5324B212058609868022188439860DF
:10001000D860186158612E4B002199600221596106
:100020000121F02299502B49196001219960352056
:1000300000F044F80222904214D00621196600F024
:1000400034F8196E01211966002018661A6600F04E
:100050002CF8196E196E196E052000F02FF8012189
:100060000842F9D1002199601B49196000215960AB
:100070001A491B48016001219960EB211966A021F2
:10008000196600F012F800219960164914480160C1
:100090000121996001BC002800D000471248134993
:1000A000086003C880F30888084703B5996A0420EC
:1000B0000142FBD001200142F8D103BD02B5186610
:1000C0001866FFF7F2FF186E186E02BD00000240BE
:1000D000000000180000070000035F00212200005C
:1000E000F4000018222000A00001001008ED00E03C
:1000F00000000000000000000000000074B24E7A12
:1001000000200420F7010010CB010010CD010010E9
:10011000C9010010C9010010C9010010C901001077
:10012000C9010010C9010010C9010010CF01001061
:10013000C9010010C9010010D1010010D301001045
:10014000C1010010C1010010C1010010C101001067
:10015000C1010010C1010010C1010010C101001057
:10016000C1010010C1010010C1010010C101001047
:10017000C1010010C1010010C1010010C101001037
:10018000C1010010C1010010C1010010C101001027
:10019000C1010010C1010010C1010010C101001017
:1001A000C1010010C1010010C1010010C101001007
:1001B000C1010010C1010010C1010010C1010010F7
:1001C000EFF30580103800BE00BE00BE00BE00BECA
:1001D00000BE00BEF2EB8871F84C0110144D011006
:1001E0003802001090A31AE71E481F49086006C88D
:1001F00081F3088810471D480068002801D019487D
:10020000F3E70DA40ECC002902D000F012F8F9E7B4
:100210001749184A002000E001C19142FCD116495B
:100220008847164988471649884700BEFDE701C937
:1002300001C29A42FBD37047144D0110C000002048
:100240008C0C0020E0580110000004200000042065
:10025000E0580110001004200010042000000000ED
:10026000704700000000000008ED00E0000000D032
:100270008C0C0020745C0020853D0010650300108C
:100280007D3D0010F8B5C0460448054B10B58342CB
:1002900003D0044B002B00D0984710BD8C0C0020DD
:1002A0008C0C00200000000006480749091A8B103A
:1002B000C90FC91810B5491003D0044B002B00D04A
:1002C000984710BD8C0C00208C0C00200000000012
:1002D00010B5074C2378002B09D1FFF7D5FF054B4C
:1002E000002B02D0044800E000BF0123237010BDA2
:1002F000E85500200000000024380110054B10B51F
:10030000002B03D00449054800E000BFFFF7CCFFF5
:1003100010BDC04600000000EC550020243801103C
:100320000368012B05D1D02380221B0692045A6159
:100330007047D02380221B0692049A61F8E7C046DA
:1003400010B5002808D0054C00222100044803F015
:1003500059FF23680133236010BDC046305B002085
:10036000FC5A0020F0B5D0258026374BC3B001934E
:10037000364B0021364A00930120364B04F070FFC3
:1003800002AC19202D06B60400F044F90CAF200091
:100390006E6204F0B7FE3B0007CC07C306CC06C371
:1003A00003E06E61642000F033FD0121642004F05D
:1003B00071FF041E04D06B683342F2D0AE61F1E7E6
:1003C000D02380221B0692049A6100213B00002268
:1003D00011A804F05FFD204A204911AB0AA804F0DF
:1003E000A3FD05F08DFD1E4B02000AA91D4804F077
:1003F000D5FD05F085FD1C4D02001C4B0AA9280007
:1004000004F000FE1A4B1B4A009311A9002309A80F
:1004100004F02CFE3B00022211A91EA804F0ACFA45
:1004200009A91EA804F042FB134B2900134A0094AB
:100430001EA804F001FB124B1C6000230D4A1EA8ED
:1004400004F0A4FBF9E7C046450500101D050010A7
:10045000C10400100D05001090460110283801104D
:1004600034380110FC5A0020905B00204038011005
:100470004103001000E1F50521030010105B00208E
:10048000305B002070B50C0000F06CFD00230B4ABF
:1004900006000D0001F0F8F9002320606160074AB2
:1004A0003000290001F0F0F9100053019B1A9A0066
:1004B0001218D2000020A26070BDC04640420F005A
:1004C000E12110B50F4C4902200000F08FFD022100
:1004D000002000F085F80221012000F081F8C02200
:1004E000236B12021340084A2000136008210023E6
:1004F000012200F01BFE2000012100F053FE01202C
:1005000010BDC046004003403050034010B50248C3
:1005100000F0FAFD012010BD00400340100030B58E
:10052000002A0BD08D1820220C0005498B691A4235
:10053000FCD1237801340B60A542F7D130BDC04611
:1005400000400340F0B5DE46464657469346C0B5E8
:1005500082B01C00884600F005FD5B4600900191CA
:10056000002B37D06201121B93001B19DB001C000B
:10057000DD17002310269A46184F00F0F3FC009A6E
:10058000019B801A994122002B00121A8B41002BEB
:1005900018DD1100114800F035FE002816D0BB69A7
:1005A0001E42FCD1514642463B68535401239C46AF
:1005B000E244D345E1D1504602B0E0BCBB46B2466E
:1005C000A846F0BD002B01D1002AE2D101230A9AEE
:1005D0001370F0E700239A46EDE7C0460040034061
:1005E00010B54024084A83009A181268C00054408D
:1005F000C0222240054CA44663441A60044B9C462A
:100600006044416010BDC04604C0014004D00140B8
:10061000004001400123D022834040211206936212
:100620009361094A83009A181268C0005140C022A1
:100630000A4006498C4663441A60054B9C460523D4
:10064000604443607047C04604C0014004D001408C
:10065000004001400FB400B5084883B003F0D6FC59
:10066000049B002B07D005A91800019103F052FB51
:10067000034803F0CBFC012003F064FB4838011071
:100680005838011070B5EFF3108C72B60D4D2B6811
:10069000002BFCD0BFF35F8F0724CB08C618C05CCB
:1006A00001230C40A3401C000440034207D1034334
:1006B0003370BFF35F8F2C608CF3108870BD100017
:1006C000FFF7C8FF2C0100D0044A1078431CDBB2AE
:1006D000172B00D9102313707047C04698010020D3
:1006E0000021044B044ABFF35F8F02C39342FAD147
:1006F0007047C046000100D0800100D0054B064A7B
:100700001360064A136053609360D36013615361B2
:10071000936170478080808000E400E004E400E0A2
:100720001F2318401E3B8340002905D0C021044AE6
:100730004900535013607047802201498B50FAE7FB
:1007400000E100E070B50D00EFF3108672B60F4ABD
:100750001368002BFCD0BFF35F8F0D4B10309B68EC
:1007600084001B590B4A934203D09D4201D000F0F4
:10077000EFFE074B9B681D51BFF35F8FBFF35F8F89
:100780000022024B1A6086F3108870BD240100D04D
:1007900000ED00E0C1010010024B9C46614489005D
:1007A0000160704740000034F8B5134D134E2C0023
:1007B000FF27B5421ED22368002B0FD0FFF784FF1E
:1007C00001002800FFF7E8FFA780BFF35F8F083420
:1007D000B4420FD223682500002BEFD1FFF774FF3E
:1007E00001002800FFF7D8FF2771BFF35F8F08349F
:1007F000B442EFD3F8BDC046840C00208C0C00201E
:100800000A4B1968EFF3108072B60A68002AFCD010
:10081000BFF35F8F1B68BFF35F8F00221A6080F306
:10082000108840BF002000217047C046585B002060
:10083000F0B5DE4657464E464546E0B585B0EFF387
:100840000582032313409A0011000392B64A5258BE
:10085000904601229A409146B44B1A604B46B448E8
:100860004363434608229B5E9A46002B3DDA43468B
:100870009B881BB2002B00DBA1E043469B79002B39
:1008800000D0F3E0434608241C5F002C23DB4246E3
:100890005269630094461B19DB0063449C68DD6861
:1008A000631C00D10FE1A248039984466144826A27
:1008B0000B69A61A9B1A9E4215D34A46036A1A422E
:1008C00011D09B4800F046FB241A8D41002D02DC1C
:1008D000C4D1002CC2D040BF05B0F0BCBB46B2466C
:1008E000A946A046F0BD0C61EBE7424652695B00A9
:1008F00093465344DB009B445B469E68DF6800F0F0
:1009000029FB801BB9410029B1DB002F00DAE5E0AB
:100910005B46884A1B69934200D1D8E041465A465B
:100920000820085E5288000410435A4651699847CF
:1009300004000D0023002B4300D1CFE0002D00DB8D
:10094000E8E0361BAF4134003D005B469C60DD6053
:100950000021595E002900DA89E743465B692200DD
:100960009C462B0048004018C00060448668C76859
:10097000921BBB41002B00DA79E743466646020032
:100980000094019519810CE07B00DB19DB00F31862
:10099000009801999C68DD68001BA941002904DBCF
:1009A0001A000023D75E002FEEDA5B461F80534605
:1009B000138043469B881BB2002B00DA5DE7434659
:1009C0001A69EFF3108172B61368002BFCD0BFF3E5
:1009D0005F8F43469B8842461BB29A4601235B4287
:1009E00093801369BFF35F8F00221A6081F3108830
:1009F0005346002B00DA40E743465B699C460823D8
:100A000043449B4653465F0043465744FF00082239
:100A10009A5E67445E46BC68FD68002A19DB3B00AD
:100A20000094019567469C4604E01E000023F25E98
:100A3000002A0BDB0098019953009B18DB00FB1880
:100A40009C68DD68001BA9410029EEDA6346BC46BC
:100A50001F005346338000217B5E3A809A46002B6C
:100A6000D0DA43469B79002B00D10BE700234246A6
:100A70009371434646460821595E08364B1C00D107
:100A800029E747468C46556902E006004B1C17D003
:100A90004B005B18DB00E8180A00E95E43881BB2D4
:100AA000002BF2DA01235B42DC178360C4606245ED
:100AB000ECD031803B89944603803A814B1CE7D1CE
:100AC000B8466446E1E66B1C00D0ECE6F9E65B460E
:100AD0005C69200023699847002821D15B46424683
:100AE0001B8813811269EFF3108372B61168002915
:100AF000FCD0BFF35F8F4246594652880A80424677
:100B0000514651801269BFF35F8F0021116083F35A
:100B10001088ACE6064800F01DFA24184D4114E791
:100B20006568246806E7C046EC5A00203C70054022
:100B3000004005403108001070B52E4C2569002D8D
:100B400004D00A212C48FFF727FE70BD2B4E03214D
:100B5000300000F0F5F9E660FFF7B6FD284B032200
:100B60009C46D02322701B061B6801216370254B15
:100B70006044A3600F2380002061022063806369CA
:100B80004942A18019800231198647311D8358528C
:100B900018315A5275325C399952183201319952D2
:100BA00018320131995218320131995208351832F0
:100BB0009D5202311832995218320131995218322D
:100BC000013199521832013199521832013199523A
:100BD0001832013199520C4B0C49DC6001303562FE
:100BE000FFF7B0FD01210320FFF79AFD084B1D60C0
:100BF000A7E7C0469C010020585B0020004005404C
:100C000040000034FFFF1000EC5A002031080010B3
:100C10003860054070B5C646010000B50469EFF3C1
:100C2000108C72B620680028FCD0BFF35F8F0220C2
:100C30000D5E48696C0080466419E4004444002D50
:100C400001DB208848800869BFF35F8F00260660BB
:100C50008CF31088002D30DBE36063880598013346
:100C600020615B0406985B0CA26060611A1C002B7B
:100C700021D090B22B04628018430A69EFF31086EA
:100C800072B61368002BFCD0BFF35F8F8B88238074
:100C90008D800B69BFF35F8F00221A6086F3108886
:100CA0000B7801329A40CB6805498C4663441A6040
:100CB00040BCB04670BD0122DBE701204042F7E7AF
:100CC0003C20000010B543890A14934233DD5300E1
:100CD0009B184269DB00944604696344EFF3108C6F
:100CE00072B62268002AFCD0BFF35F8F5A880904CD
:100CF00094B2090C8A4208D00369BFF35F8F0022C7
:100D00001A608CF31088002010BD80221202144358
:100D10005C80012302698371BFF35F8F0021116042
:100D20008CF31088054902788C469340C2680120F4
:100D300062441360E8E70020E6E7C0463C2000007C
:100D4000F0B504000D0006267642F717C6463619A0
:100D50006F4100B582B08F4214D811D000F002F973
:100D600032003B00121A8B41002B15DC002B44D0C3
:100D70002000290000F02AF902B080BCB846F0BD7E
:100D80008642EBD90026002700F0ECF832003B0049
:100D9000121A8B41002BE9DD00F0E4F832003B0031
:100DA000121A8B41002B0ADB00230193144B3200F3
:100DB000009314483B00FFF72DFF0028D8DBB04616
:100DC0000026BC46104A114F7B6A9C4504D8B96A7C
:100DD0008845CDD99C45CBD11168EFF3108072B610
:100DE0000B68002BFCD0BFF35F8F1368BFF35F8FDE
:100DF0001E6080F3108820BFE6E7002AB8D0CBE75A
:100E0000010800109C010020585B002000400540B4
:100E100070B5060000F0A6F8FA2204000D000023C9
:100E200030000021920001F013FB001969410029F4
:100E300002DBFFF785FF70BD012001494042F8E762
:100E4000FFFFFF7FF0B5CE46474680B504000D009A
:100E500083B0EFF30587002F0DD0364A0020536A88
:100E60008B4203D3926A0130A24250D303B0C0BC7C
:100E7000B946B046F0BD304B9846DB6899464346CC
:100E800048461E7800F066F80B004946020004361A
:100E9000B600715820008E1A2900801A99418F429D
:100EA00011DC0ED020BF234A0020536AAB42DDD3B1
:100EB000926A0130A242D9D2E81A421E9041C0B2D1
:100EC000D4E78642EED900F04DF822002B00121A2A
:100ED0008B41002B20DB00230193184B2200009351
:100EE00040462B00FFF796FE011E15DD114B2E002C
:100EF0005A6A95421CD89B6AA34217D34046FFF713
:100F0000E1FE0C4A0020536A9E42AFD8D0E7581A3F
:100F1000421E9041C0B2A9E7064A0020536AAB4284
:100F2000A4D3926A0120A242A0D2C5E79542E5D19E
:100F300020BFE3E7004005409C01002001080010AD
:100F400010B5024A0248FFF79DFB10BD5C38011046
:100F50005C5600200300416A0A00986A596A8A4276
:100F6000FAD17047034B596A0A00986A596A91424C
:100F7000FAD170470040054070B504000D00124AD8
:100F8000536A1900966A536A8B42FAD130001900ED
:100F900024184D41AB4211D80ED02B000A494A6AA1
:100FA0009A42FCD307D1084A02E0516A994202D121
:100FB000916AA142F9D370BDA642EED90123012462
:100FC0006442E5175B42E9E700400540064A536A80
:100FD0009942FCD807D1044B02E05A6A914202D1EF
:100FE0009A6A8242F9D3704700400540F8B5040080
:100FF00006200D0000F006FA002842D0364B374993
:10100000E21853425A418023DB039C469205344B3D
:1010100062441A60334B1A6010000B689843FBD18E
:101020002D4B8021E3185A4253412F4A5B0049005F
:101030009952062000F0E6F92900C00000F0E6FB16
:101040000130C3091ED1402701226262A362266BD0
:10105000F30722D4E36A254B0620E51800232B6012
:10106000266300F0CFF93900800000F0CFFB70223A
:10107000E36A5A407E2313402B601D4B23630323F6
:10108000A364F8BD1B4A93421ED900231A4A1B4F82
:101090006262A362266BF307DCD5194B144AE3188E
:1010A0001A60656AA26A0620AD01AD1800F0AAF9BF
:1010B000144900F0ABFBAD020100280000F0A6FBD4
:1010C0000021FFF759FFC5E74006800E9F011A0077
:1010D0003F180300B9E7C0460080FCBF08C00040CD
:1010E00000E0004000F00040185C00202C100000E0
:1010F00001030000FEFF0000FFFF0000C0FF3F00F3
:10110000303000004E0E0000064B9C4660444342C7
:1011100058418023DB039C468005034B60441860E4
:101120007047C0460080FCBF00E000400539013A2E
:10113000F8B5D2004C0105001443002B05D0022263
:101140002243012B24D105331C432E6BF30708D413
:10115000EA6A104B62406E24EB1814401C602E6348
:10116000F8BD0D4B0D4AEB181A606F6AAA6A06208B
:10117000BF01BF1800F046F9094900F047FBBF0264
:101180000100380000F042FB0021FFF7F5FEDFE729
:101190001400DAE72C1000003030000001030000DA
:1011A0004E0E0000F8B54B1E9941066B05000C0170
:1011B000F30708D41023E96A4C401C400D4BEB1890
:1011C0001C602E63F8BD0C4B0C4AC3181A60476AAA
:1011D000826ABF010620BF1800F014F9084900F028
:1011E00015FBBF020100380000F010FB0021FFF7E3
:1011F000C3FEDFE72C1000003030000001030000C8
:101200004E0E0000074A30B51024956A03E0936A39
:101210005B1B8B4204D883691C42F8D1012030BD8E
:101220000020FCE700400540F8B5DE464E46574634
:101230004546E0B58B4605000A991800160000F0F7
:10124000E5FA0A9B6C001F02324B64199C46A4000D
:101250006444636881469F4200D967602B1FDBB2FC
:101260009846012B30D9C02380229B01E31812013C
:101270001A60294BAD0059599A4600291BD12268A2
:1012800076017240E0268023164042465B01E31857
:101290001E60012A30D9802380229B01E3181201AD
:1012A0001A6053464A4667605A51F0BCBB46B24684
:1012B000A946A046F8BD586900F0A8FA431C58009A
:1012C000C0180338FDD2DAE75B46012BCBD1C0232F
:1012D00003229B01E3181A60023AA3681A42FCD069
:1012E000E0232268760156401E4080230A4A5B01B3
:1012F0009246E3181E60AD005A4621685140032211
:101300000A401A6001225B469A40A3681A42FCD048
:10131000C1E7C0460080004070560020F0B5464648
:101320004F46D646C0B51F00344B44009C46241897
:10133000A4006444636888461600FF2B02D880230B
:101340005B006360031FDBB29A46012B30D9C023D8
:1013500080229B01E31812011A60294B850059591C
:10136000994600291BD1226876017240E02680232D
:10137000164052465B01E3181E60012A30D98023D3
:1013800080229B01E31812011A6080235B006360D6
:101390004B465F51E0BCBA46B146A846F0BD58691D
:1013A00000F034FA431C5800C0180338FDD2DAE7C5
:1013B0004346012BCBD1C02303229B01E3181A60C3
:1013C000023AA3681A42FCD0E02322687601564014
:1013D0001E4080230A4A5B019146E3181E60850087
:1013E00042462168514003220A401A6001234246C6
:1013F0009340A2681342FCD0C1E7C0460080004081
:1014000070560020014B8000C05870477056002075
:10141000F8B5040020481D0017000E0000F0F6F992
:101420000100380000F0F2F9069B29041B03194360
:101430002368002B1EDB194B194DE21853425A4109
:1014400080235B019C461203164B62441A60164BC4
:101450001A6017002B689F43FBD1144B2660E218DB
:101460002123A06013602368002BFCDA0823E160CD
:101470001360F8BD3F2322681340B342DBD1A36859
:101480001B051B0D8342D6D1EE22E368D202134026
:101490008B42D0D1EDE7C046001BB7000040FDBF36
:1014A00008C0004000E0004000F0004004300000B0
:1014B0008023024A9B000B43D362704700800540A3
:1014C000142310B50100188804331B88984710BDF9
:1014D000162310B50100188802331B88984710BDE9
:1014E000F8B54746CE4680B50F1E19D0142399464D
:1014F000043304000025012698464B4618884346CD
:1015000021681B88984701C4431E98410135404219
:101510000640AF42F1D13000C0BCB946B046F8BD7C
:101520000126F8E7AA23064A1B0113608D235B00FE
:10153000D3600449044B19605368002BFCDA7047F0
:101540000040024000B0FA00006002407047C04610
:1015500010B50148FFF77EF88038011070B5074DCF
:10156000074EB54209D20024013E761BB60808CDCD
:10157000984723000134B342F9D170BDE037011020
:101580001C380110054B064A06491A60064A074BEB
:101590001A6010000B689843FBD1704700E00040D0
:1015A000BFCDFBFE08C00040FE7F3C0000F00040C5
:1015B000044BDB6C002B03D18022034BD2021A6058
:1015C0007047C046000011504C201150044A054B92
:1015D0001A60054A1368DB018033FBD17047C046AF
:1015E000FFFFFF0100F0004008C000404022034B15
:1015F0009A675A671A67DA667047C04600F001407A
:1016000010B5FFF76DF810BDF8B52D492D4C2E4DD6
:10161000641AA6103200302E00D930222800920021
:1016200001F052F8BC2C41D80123711C08009C46E3
:10163000264A30293DD92F272C196407E30FBF1BF9
:10164000052F19D9302917D8002B36D0B1006A5090
:101650006146CC1AF3189B006108EB18C900C91841
:101660001A605A6008338B42FAD101232100994352
:1016700046188C421AD0711CB300EA50302915D09C
:1016800089006A50B31C2E2E10D09B00EA50F31C28
:101690002D2E0BD09B00EA50331D2C2E06D09B0024
:1016A000EA50731D2B2E01D09B00EA50084B9D6021
:1016B000F8BD2F339B1B9C46BDE73000C8E7C046F2
:1016C00000010010C001001000000020C101001046
:1016D00000ED00E0002310B5294C82B0A367FFF7AE
:1016E00021FF0122274B1A60636C012BFCD10322DE
:1016F000254B1A60224A936B012BFCD101330093D6
:101700000121224A22480433FFF782FE05230121EA
:101710000093204A2048FFF77BFE0022022104208C
:101720001E4BFFF7FBFD0022012105201C4BFFF79C
:10173000F5FD0022002107201A4BFFF7EFFD0022E4
:1017400000210820174BFFF7E9FD8023DB00009301
:10175000002200210920134BFFF766FD0022104BE9
:1017600000210620FFF7DAFD0420FFF74BFE0E49AB
:1017700000F04CF801000020FFF79AFE02B010BD07
:10178000008000403CB0004030B00040002F68595D
:1017900000800240008C864700C00240001BB7005A
:1017A00040597307006CDC0240420F0001480421DD
:1017B000014B1847C0010020E1140010124A936F3A
:1017C0009B0815D29066D166002905D0FFE7FFE798
:1017D000FFE7516F106F704704B580210906C217EB
:1017E0005140002800D0C84311F0EAFF002104BD99
:1017F000F0B5146E556E576F166FFFF7E3FF146662
:10180000556657671667F0BD000000D0114A936F08
:101810009B0813D210665166002905D0FFE7FFE749
:10182000FFE7516F106F704704B5002801D000200A
:10183000C04311F0C5FF002104BDC046F0B5146ED1
:10184000556E576F166FFFF7E5FF146655665767BD
:101850001667F0BD000000D094464A4A926F920885
:10186000624601D228E0C046F0B5464E346E756E31
:10187000776F366F00F020F89446424A146655663A
:10188000576716676246F0BD94463E4A926F9208CB
:10189000624601D254E0C046F0B53A4E346E756EE1
:1018A000776F366F00F04CF89446364A14665566EA
:1018B000576716676246F0BD002B24DB11D0002964
:1018C0003EDA00B5C943404200D1013100F038F89A
:1018D000C943404200D10131DB43524200D10133C0
:1018E00000BD002AEBD1002801D1002905D000203D
:1018F000C90FC90701D1C043410800B511F058FF15
:101900000022002300BD00B500290ADBDB43524260
:1019100000D1013300F014F8C943404200D1013135
:1019200000BDC943404200D10131DB43524200D1E6
:10193000013300F005F8DB43524200D1013300BD12
:10194000002923D1002B18D1002A0CD0BC460D4F02
:1019500038667A6600210023FFE7FFE7FFE77A6F2A
:10196000386F67467047002801D00748010000B56E
:1019700011F01EFF0022002300BD02000B0000201A
:1019800000217047000000D0FFFFFFFF002B00D0B8
:10199000BFE0130C28D1002AE7D080B4114F39667C
:1019A0007A66FFE7FFE730B4040C7B6F396F1B04E6
:1019B00023433B667A66FFE7FFE7FFE7C04684B252
:1019C0007B6F3D6F1B0423433B667A66FFE7FFE7AF
:1019D000C04600232C042D0C7A6F386F0019694122
:1019E000B0BC7047000000D0F0B594460025140E3E
:1019F00001D112020835140F01D112010435940FE0
:101A000001D192000235D40F01D152000135D40B1F
:101A10000134254F7C66254C3C660E0C93B2FFE7E3
:101A2000FFE7FFE73C6F6643360C7703BE46734320
:101A3000DF0B5B04C01AB941130C7343DB18C91ADE
:101A4000CE086643360CB64493B273431F0F1B0196
:101A5000C01AB941130C73431F0B1B05C01AB941BF
:101A6000860D8F023E436643360C092D24DB520A55
:101A70007243801A7703460A6643360C16235B1BB3
:101A8000DE40DF40BF1964466643821B7046043562
:101A900006330100D940A840C01900D30131A24249
:101AA00006D20023F0BD0000000000D0FFFFFFFFC2
:101AB000121B0130F3D3F1E709277F1BFE40644678
:101AC000A2B27243801A00D20139220C7243130C65
:101AD0001204821A99410B00704604351337010035
:101AE000F940A840801900D30131002B02D1A24255
:101AF0000AD2F0BD013000D30131121BFAD2013BF2
:101B0000F8D1A24200D2F0BD013000D30131121B46
:101B1000F7E7F0B51C0C00D080E00CB400251C0ADF
:101B200004D11B02160E3343120208351C0B04D1DC
:101B30001B01160F3343120104359C0B04D19B008B
:101B4000960F334392000235DC0B02D192185B41B1
:101B500001351C00971864410134464F7C66464CA1
:101B60003C660E0CFFE7FFE7FFE7C0463C6F6643AD
:101B7000360C7703BE4697B27743C01B00D20139BB
:101B8000C01B00D201399FB27743C91BC91B170C78
:101B900077437E04FF0B801BB941CE086643360CA9
:101BA0000C2D33DBB644120B1F053A431B0B97B2C7
:101BB0007743C01B00D201399FB27743C91B170C72
:101BC00077433E043F0C801BB941860D8F023E4394
:101BD000664329277F1BFE400C3D7746AF40BF1967
:101BE00030BCA2B2ABB272437343801A9941220C4B
:101BF0007243130C1204801A994102000B00013742
:101C0000001BA941F9D2781E0021F0BD0C277F1BD3
:101C1000FE4077467F0BAF40FF19E0E700245D1CD4
:101C200007D0144F7D663966FFE7FFE7FFE7FFE760
:101C30003C6F95B29EB265436643401BB141150CA3
:101C40001E0C6543664336042F0C3E432D04401B97
:101C5000B141994204D202000B0020000021F0BDE6
:101C600001D19042F7D3801A994101349942F2D3BD
:101C7000F6E70000000000D0FFFFFFFF48404140B2
:101C8000484018B41B4B5B68FC46019308BD04DF59
:101C9000231F001018B4174B1B68FC46019308BDA6
:101CA00000DF2D1F00109446134A926F920809D24C
:101CB000624618B40F4BDB68FC46019308BD0CDF8D
:101CC000E52100100C4AF0B5146E556E576F166F73
:101CD0006246FFF7EEFF084A1466556657671667B7
:101CE000F0BD18B4034B9B68FC46019308BD08DFA8
:101CF00089200010E8530020000000D0FFB55040BC
:101D00004240504059404B40594000E0FFB5154F0C
:101D10004C00640D03D0BC4204D10C0314D8002045
:101D2000090D09055C00640D03D0BC4204D11C03FD
:101D30000AD800221B0D1B0501264B4009D44B403D
:101D400003D58B4200D18242FFBD9942FCD1904223
:101D5000FFBD0B43DB1803431343F5D0C9434918B8
:101D6000FFBD0000FF07000000B5FFF7CFFF804177
:101D700000BDC04600B5FFF7C9FF01D9002000BD76
:101D8000012000BD00B5FFF7B9FF01D9002000BD5B
:101D9000012000BD00B5FFF7B1FF804100BD01206B
:101DA00040054A00121804D85A00121801D8002021
:101DB00070470120704700000021002805D17047BE
:101DC000C1174840401AFAD0C90713B5064B1B6823
:101DD00098470CBC441CA2401005120B0349091B78
:101DE00009051943114310BD545B00201F04000076
:101DF00010B54C00620D8023D218DB00D21A5B05AF
:101E00007E2A10DD9E3A13DACC17090349081943DC
:101E10005242D140640001341532202A05DAD04004
:101E20000843604310BD002010BD0846604310BD4C
:101E3000C80FC018013810BD18B4044B5B6AFC46CB
:101E4000019308BD24DF952300100000E853002013
:101E5000132370B51D78012D19D014DD1E48FFF72E
:101E600037FB06001D48FFF733FB1D4C8022310075
:101E7000200000F029FC022D06D01A48FFF720FBB5
:101E8000194B186070BD164C184BA364F5E7174B3F
:101E9000134C23606360A360E36023616361A3610B
:101EA000E36123626362A362E36223636363A36308
:101EB000E36323646364A364E36423656365A365E8
:101EC000E36523666366A366E36623676367A367C8
:101ED000E367A364D1E7C0465344000053460000C3
:101EE000E85300204C330000545B0020F11E00102A
:101EF00007B5604601880A0A0230DF2AFAD1C9B262
:101F0000820804D3028840880004104300E000687F
:101F1000014A5050039007BDE85300200FB403BCA2
:101F20000CBCF0B50124E407634000E0F0B50C0DF3
:101F3000CF0F661E3605891B640503D3C943404293
:101F400000D30131640D03D0661CF60A07D0E41BF0
:101F500000207F00791C89078912803C24031D0D15
:101F6000DF0F6E1E36059B1B6D0503D3DB4352420C
:101F700000D301336D0D03D06E1CF60A07D0ED1BA4
:101F800000227F007B1C9B079B12803D2D032F1B93
:101F9000661B58D4A446202E46DA20371400BC40D5
:101FA0001D00BD40F24033412A4380185941CB0FF8
:101FB00005D0C943C04300226442504151416246AA
:101FC0004D0D28D10D0D07D100281FD024194041F7
:101FD0004941013A0D0DF9D0640006D3013000D318
:101FE0000131002C01D140084000013A0BD4941C6F
:101FF000E40A04D112051144DB071944F0BDD907E6
:10200000204B194300E0D9070020F0BD0029DDD1A5
:10201000002CDBD1F0BD0132C6074008CD072843B4
:102020004908002EE1D0D9E73C2E29DA203E40377E
:102030001400BC4000D00124F24014431A00BB40FD
:102040001C43D317ACE7AC46202F08DA2036040037
:10205000B4400D00B540F84039412843A5E73C2F76
:102060000CDA203F40360400B44000D00124F84090
:1020700004430800B1400C43C117EAE710001900FF
:10208000002494E70000F07FF0B50C0D661E3605C5
:10209000891BE60A6405640D02D0651CED0A04D0B4
:1020A000002001210905803C2403A4461C0D671E65
:1020B0003F05DB1BE70A6405640D02D0651CED0AD1
:1020C00004D0002201231B05803C24037740644494
:1020D00097B484B296B27443070C7E43150C6F43D9
:1020E00080B26843361802D3012000043F18300440
:1020F000350C00197D41844688B29AB250430C0CCD
:1021000062431F0C7C438EB27E43921902D3012698
:102110003604A4191604170C3618674101BC81B2A5
:102120009AB25143040C62431B0C5C4380B2584387
:10213000121802D30120000424181004130C4018B4
:1021400063412D185E410020474106BC88B293B21E
:1021500058430C0C6343120C544389B251435B182F
:1021600002D301210904641819041A0C09186241E8
:102170006D1856410020474118BCF902720D1143F9
:10218000F0026A0D1043ED020A0D03D16D194041B2
:102190004941013B124E9B1B7600B3420ED26D00AB
:1021A00007D30130002671416646354301D140080E
:1021B00040001B05C918E4072144F0BD0BDA0133C8
:1021C00006D1013004D101314F0D01D04908F2E7A9
:1021D000E1070020F0BD013631050020EBE70000EB
:1021E000FF030000F0B51C0D671E3F05DB1BE70A6F
:1021F0006405640D02D0661CF60A04D00022012397
:102200001B05803C2403D0252D060026F6432E66B0
:102210001E096E66CE0FF619B44649004F0D02D066
:102220007E1CF60A03D000200021403F3F033E1BE6
:10223000B600B444013F7F05C91B49082E6F013623
:1022400076089C02950D25437543ED137543AD1338
:1022500001356D10F603761B0CB4CC02450D2C43F2
:10226000A2B2B3B25A43270C7B43350C6F43A4B2DE
:102270006C431B1902D3012424043F191C041D0CB8
:10228000A4187D4124196D41009A91B2ACB261430A
:10229000170C7C432B0C5F4392B25A43A41802D311
:1022A00001221204BF182204230C52187B41019C06
:1022B0006C431B19520ED9010A434401A01A81B282
:1022C000B2B2514303145A43360C734387B2774377
:1022D000D617D21900277E4136049B191704160C15
:1022E0007F185E417316ED18F301002680337541A7
:1022F000A90F06D16400690AE8055B0A184309D2F0
:102300002FE00422944480337541A90AA8059B0A52
:10231000184326D3404149412404009A019B0D00F3
:102320005543641B4343E41A95B286B27543170CB8
:102330007E43030C5F4392B25A43B61802D3012284
:102340001204BF183204330C52197B4152429C4193
:10235000002C02D40022013051414008CA0710432A
:10236000490802B06246D7079210084BD218084BB2
:102370009A4203D212058918C919F0BD0020002A1B
:1023800001DC3900F0BD01331905F5E7FD0300005C
:10239000FE070000002200B5203200F004F808001B
:1023A00000BD000000220B150AD410B5944600F0C1
:1023B00031F81414013400DA0021CB17144C2047F3
:1023C0000020002170476244343A0CD40C2A07DA0A
:1023D00004009140904052422032D440214310BD2D
:1023E000D843D94310BD203207D40C469440524202
:1023F00020321141D040204310BD0800C9172032BF
:1024000003D452422032104110BD1800190010BDF3
:10241000C72300100A0DCC0F531E1B05C91A520505
:1024200003D3C943404200D30131520D03D0531CA2
:10243000DB0A07D0121B00206400611C8907891287
:10244000803A1203014BD21A70470000FF030000CC
:1024500051434343C9188C46110C83B24B4310B40B
:10246000040C614392B280B2504362431C041B0CC3
:10247000001910BC59411304120CC0185141614499
:10248000704700004840414048400E4B5B68184789
:102490000C4B1B6818470C4A936F9B0802D2094BE0
:1024A000DB681847F0B5146E556E576F166FFFF75F
:1024B000F6FF054A1466556657671667F0BD014B6F
:1024C0009B681847E8540020000000D0491A0028F3
:1024D00008D1084670470000C10FC90700D5404227
:1024E000002817D0F44603B40B4B1B68984706BC72
:1024F00081409E384042803107D20B0607D0490008
:10250000490AC0051043084360470130F8E7490A0B
:102510008902F5E770470000545B002041000A0E75
:1025200080231B067E2A0BDD9E3A0BDAC117400280
:10253000400818435242D040490001314843704797
:1025400000207047C00FC01801387047C0420DD33B
:1025500000B540004008002100F012F8002801D426
:10256000404200BD8020000600BD0000034BDB6937
:10257000FC4618471CDF1D2600100000E854002010
:10258000014B5B6A18470000E8540020132310B584
:1025900012481C78FEF79CFF0100012C0AD003DDD5
:1025A00080220F4800F090F80E48FEF789FF0E4B8E
:1025B000186010BD0A4C5422200000F085F80B4B27
:1025C0006365A365E36523666366A366E3662367C5
:1025D0006367A367E3672362E361E5E753460000AF
:1025E000E85400204C330000545B0020F12500101B
:1025F00007B5604601880A0A0230DF2AFAD1C9B25B
:10260000820804D3028840880004104300E0006878
:10261000014A5050039007BDE85400200021C21524
:102620008032803201D0024A1047002070470000FB
:10263000CD2A000010B504000FF0F0FD002804D0F2
:10264000034B04199C4200D810BD0248FEF702F863
:10265000000004208C38011070B505000C000FF04C
:1026600035FD6C43002804D0034B04199C4200D86C
:1026700070BD0248FDF7EEFF000004208C38011009
:1026800010B50C0010F074F9002804D0034B0419A5
:102690009C4200D810BD0248FDF7DCFF000004207A
:1026A0008C38011010B50FF0C3FD10BD0148042196
:1026B000014B1847D0010020E1140010014B1B68AA
:1026C00018470000D0010020014B5B68184700004C
:1026D000D0010020EFF3108C72B6074B1A68002A65
:1026E000FCD0BFF35F8F41680068BFF35F8F0022AB
:1026F0001A608CF310887047340100D030B5140094
:102700001D00EFF3108172B6074B1A68002AFCD047
:10271000BFF35F8F04604560BFF35F8F00221A60D4
:1027200081F3108830BDC046340100D030B50100BF
:1027300014001D00EFF3108C72B609480368002BDB
:10274000FCD0BFF35F8F0A684B680C604D60BFF32D
:102750005F8F002101608CF310881000190030BDDC
:10276000340100D09A4200D2885470477047C04666
:10277000F8B557464E464546DE46E0B599460A9BB3
:1027800007009A460D9B8846934615000B9E9B07B3
:1027900010D10C9B9E420DD29D1B14000E005D4477
:1027A00022004B46013431002020B847A542F7D122
:1027B000B0460B9E002E27D0444675195346AA1BDF
:1027C000013E985D21004B46B847002EF6D123000C
:1027D0002C0098460D9B9B070FD55B46E51A0C9B7A
:1027E000AB420AD94646984622004B46310020208B
:1027F0000135B8470134A845F6D82000F0BCBB46E7
:10280000B246A946A046F8BD2C00E3E7F0B54F4616
:102810004646D646C0B584B098460EAB1B78129F8C
:10282000994694460D9C109B119EBA0725D4002E04
:102830004BD19C4200D3BFE001223A4092461F2C6C
:1028400000D9B8E00C9A551E302201E0202C03D0AC
:1028500001342A55A342F9D85246002A0DD0A64287
:102860000BD9202C44D00C9A551E302201E0202C8C
:102870003ED001342A55B442F9D1FA064DD57A0535
:102880003FD4002C39D10F9B102B00D179E00F9B46
:10289000022B00D18AE030230C9A012413704B469E
:1028A000002B3FD02D230C9A135501340C9B62460C
:1028B00000930397434602960194FFF759FF04B033
:1028C000E0BCBA46B146A846F0BD012215003D4025
:1028D000AA463A422FD04A46002A02D10C323A4246
:1028E00000D0013E9C42BAD21F2CABD9202E27D952
:1028F0002024FA06DAD57A0503D4A3422DD0A642C5
:102900002BD00F9B102B32D0022B20D0202CCDD0DF
:1029100030220C9B1B191A700134202CC6D04B4658
:10292000002BBFD17B070DD43B07BFD520230C9ACA
:1029300013550134BAE79C429FD21F2C00D881E77F
:1029400020249AE72B230C9A13550134AEE7202C50
:10295000ACD00C9B1B1901343AE0631E012C92D0C1
:102960000F9A102A2AD0022A2FD01C00D0E7BB06CB
:102970000ED4202C9AD00C9B1A1901347823137092
:10298000C4E7BB060DD478230C9A01241370BFE76B
:10299000202C00D18AE758220C9B1B191A70013495
:1029A000B4E758230C9A01241370B1E70C9A6033F2
:1029B00001241370ACE7202400265EE7023CBA062F
:1029C000E9D40C9A12191C00D8E70C9A9246534489
:1029D00062221A709AE7C04610B5002800D110BDD7
:1029E00001F0C8FAFBE7C046F0B5DE4657464E4652
:1029F0004546E0B59BB09B46249B89469846259B5F
:102A00000B900C924046424619009A46FFF7C7F9D0
:102A1000002800D0D8E0012240465146774B524270
:102A2000FFF7B8F9002800D0CEE001224046514619
:102A3000734B5242FFF798F9002800D0C4E00022FF
:102A4000002340465146FFF78FF9002800D0B9E136
:102A5000424653460A9209938023289ADB001A4083
:102A60000E92289A1A4201D1062326930A9A099BAC
:102A70001600134300D0C7E0289B002500261B0545
:102A800000D49BE100230D93269A0D9B9A4200DC13
:102A90009FE1D01A431E26938023289ADB001A4315
:102AA0000023002728920D93279B0024BB4200D9C6
:102AB000DC1B0223289A1A400E92289A134203D054
:102AC0007B427B415B421C400D9B002B07D00A9848
:102AD00009992A003300FFF7E6F80A9009910022CD
:102AE000002340465146FFF73FF9002805D08020DB
:102AF00000068446099961440991289A414B0B9D2F
:102B000013400493269B0A9A0293099B0394009214
:102B1000019349465B4628000C9A00F08BF90400AB
:102B2000002F62D0289B220098061F23C0179843CD
:102B3000631C984649465B466530A8470D9B0025B7
:102B4000DA179C18DB0F9A465440013F01E0202D14
:102B500013D00AAA94461F23200063440A2101359A
:102B60005E19FEF753FE3031317020000A21FEF766
:102B70004DFE26000400092EE9D805230693002304
:102B800004930A330393534605970B9F029312ABAA
:102B9000009342465B46494638000195FFF736FEF2
:102BA0000E9B0400002B20D00C9BC51A279BAB4228
:102BB0001BD91E0022005B46494620200135B8473C
:102BC0000134AE42F6D810E0289B42460493279B7E
:102BD00049460393269B0B98029353460092019318
:102BE0005B460C9A00F026F9040020001BB0F0BCF4
:102BF000BB46B246A946A046F0BDC046FFFFEF7FE8
:102C0000FFFFEFFFFFF7FFFF734B099F9C46780024
:102C1000400D6044FFF7D4F8704A714BFFF761F83C
:102C2000704A714BFFF736F83B03704A1B0B1A438F
:102C300004000D00300011006D4B0022FFF721F859
:102C40006C4A6D4BFFF74DF802000B002000290085
:102C5000FFF720F8FFF7CCF80D90FFF7B1F8674ABF
:102C6000674B04000D00FFF73CF80022654BFFF7AF
:102C700011F8FFF7BDF8644A0600644B20002900F4
:102C8000FFF72FF8040030000D000F96FFF798F8BB
:102C90005F4A604BFFF725F802000B002000290077
:102CA000FEF7EFFF02000B0006000F00FFF719F818
:102CB000320004000D003B0030003900FEF7EAFF4F
:102CC000002210901191544B20002900FEF7EBFFD9
:102CD0000022524BFEF7DEFF02000B00200029000D
:102CE000FEF7E1FF00224E4BFEF7D4FF02000B007F
:102CF00020002900FEF7D7FF0D00802104003200DC
:102D00003B000020C905FEF7BCFF02000B002000BD
:102D10002900FEF7BFFF02000B0010981199FEF783
:102D2000C2FF0022314BFEF7B5FF3E4B0F9C9C4685
:102D3000644400222305FEF7D4FF05000E000200C4
:102D40000B000A980999FFF70FF800280AD00D9B8D
:102D50002800013B31000D930022304BFEF7A3FF0A
:102D600005000E00C6270D992B0063318F42BF412D
:102D700028997F420437090500D495E6334300D1F2
:102D800082E6099C284A2100284B0A98FEF7FAFFA0
:102D9000002808D000222100254B0A98FEF7E4FF06
:102DA000002800D070E6269B002B00D17CE60E9B0D
:102DB0005A1E9341269AD31A269375E600230427B8
:102DC0000D9371E643460A9380231B0653440993EF
:102DD00042E6002326935FE601FCFFFFFB799F504C
:102DE0001344D33FB3C8608B288AC63F0000F03F2E
:102DF0000000F83F61436F63A787D23F71A3790951
:102E00004F930A400000E03F1655B5BBB16B02403E
:102E1000EF39FAFE422EE63F00002C40000024402D
:102E200000001840FF0300002D431CEBE2361A3F60
:102E300080842E41F0B54E46DE4657464546E0B505
:102E400097B09946209E219F229B834698460791E2
:102E50000C923B00320030003900FEF7A0FF002842
:102E600000D0A9E1012230003900CA4B5242FEF7DE
:102E70007BFF002800D0E1E0012230003900C64B82
:102E80005242FEF787FF002800D0B7E00022300052
:102E90003900C24BFEF77EFF002800D099E00022E7
:102EA00030003900BE4BFEF75FFF002800D090E0F5
:102EB0000022002330003900FEF756FF002800D022
:102EC000B1E000230D93249B5B0501D406239846B3
:102ED00008AB9C461722002430234146624404E09C
:102EE000013413550139202C01D00929F8D888461E
:102EF00030003900FEF77CFF4346DA00A94B05009D
:102F00009B181A685B6808920993FEF759FF020044
:102F10000B0030003900FEF7B4FE089A099BFEF75B
:102F2000E0FE0A900B91FEF787FF8246FEF744FF12
:102F300002000B000A980B99FEF7A3FE00229A4BA1
:102F40000A900B91FEF726FF002800D1C0E0012374
:102F50009C46E2445046FEF72FFF02000B00089803
:102F60000999FEF707FF002802D000239A46013591
:102F70004346002B6AD008AB17269C46089566444A
:102F8000554614E001235B4243440A2128009A4637
:102F9000FEF73CFC013430313719397028000A2122
:102FA000FEF734FC092D00D8D0E0D0460500202CD7
:102FB000E8D10EAB98460323249A1340012B00D18D
:102FC00096E02023249A01930392239A4346029287
:102FD0001EE0249B58460493239B0096019703937D
:102FE00043460C9A029307994B46FFF7FDFC17B036
:102FF000F0BCBB46B246A946A046F0BD249B5B0789
:103000000ED40322694B24990192039123990291D2
:10301000009358464B460C9A0799FFF7A9FBE6E741
:103020000422634BEFE73B00320000200021FEF753
:1030300028FE012306000F000D9344E7249B039311
:10304000239B0293042301935A4BE1E72800FEF7E8
:10305000B7FE02000B0030003900FEF712FE524BA3
:10306000002206000F00FEF77FFE0EAB98460028F8
:103070000AD10022300039004B4BFEF78BFE0028AE
:1030800002D1EB0700D50135202C94D008AA944634
:103090001723280063440A2101341E19FEF78EFB12
:1030A0003031280031700A21FEF788FB051EEBD174
:1030B0000323249A1340012B1BD0202C00D180E73E
:1030C0000D9B002B35D02D224146631C0A5579E714
:1030D00000220A980B99344BFEF746FE002800D0D8
:1030E00046E75346002B51D101239C46E2443FE77B
:1030F0002024239B002BE0D00D9B002B03D1249A8E
:103100000C33134202D0239B013B2393239BA34206
:10311000D3D908AB9C46172230236244202C00D11F
:103120004FE72399013413558C42C6D0202CF8D197
:1031300047E7249B5B0724D4249A2300120700D47A
:1031400040E72022414601330A553BE75746089D98
:10315000202C00D12DE7220030214046002F09D03D
:103160000132B154202A00D123E7D3431B191B1885
:10317000002BF5D10EAB98462E234146541C8B54A0
:1031800082E72B224146631C0A551BE7DB0700D46C
:10319000EEE6A9E7FFFFEFFFFFFFEF7F65CDCD4133
:1031A00065CDCDC1283B01100000E03F2C39011056
:1031B000303901103C390110249B0393239B029367
:1031C00003230193004B23E738390110F0B5DE46A5
:1031D0004E4657464546E0B59FB01C00289B914699
:1031E0000993C94AC94B8B4608901A60002900D13F
:1031F00018E2002320789A46002800D11AE226001F
:103200001D005C460AE02A006F1C4B46089D210009
:10321000A8473D0001363078002870D02528F2D12B
:1032200010239B46083B9A46043B9846023B0021EC
:103230009C46721C107816000300203BDBB2102B5A
:1032400003D8B34F9B00FB589F460300303B092B2C
:1032500032D900230A932A2868D0002398462E28C2
:103260003ED00300683BDBB2122B1CD8A94A9B005E
:10327000D3589F46012301321943DBE763460132ED
:103280001943D7E7434601321943D3E75B4601327E
:103290001943CFE7534601321943CBE780235B0044
:1032A0007078194301360300253BDBB2532BAAD8B3
:1032B000994A9B00D3589F4600270300B800C019C5
:1032C00001364000C018337830381A00303A070011
:1032D000092AF3D90A901800002398462E28C0D155
:1032E00080237078DB0019430300303B721C092BEC
:1032F00000D8A1E12A2800D1B2E11600B1E7A34627
:10330000AA462C00D14503D801235B424B449A4680
:103310004B46524659460020089DA84720001FB042
:10332000F0BCBB46B246A946A046F0BD099B40CBC7
:103330000A96002E03DB50780993561C8DE7283837
:10334000014370420A9009935078561C85E778280B
:1033500000D1DFE1582800D14CE26F2800D14FE3C3
:10336000622801D100F030FC10230A009A430B922E
:10337000692801D000F0A9FC0A230C934B0500D565
:10338000D0E10B9A802311009B0019408B461A4212
:1033900000D0A1E2802311005B0019408A461A4246
:1033A00000D0B6E313005B0600D5EDE213000999E7
:1033B0001B0601D400F076FC08C91BB2D8171A18F6
:1033C000424092B209919346DA0F1292002B09D132
:1033D000802310220B99DB000B4091430B91002BB3
:1033E00000D0E4E20B9A6123920600D541230EA996
:1033F0001F228C46DBB262440A3B5F461395A3460C
:1034000055460C9CB2460D9316000AE03033DBB2F1
:1034100001357355A74200D2EDE2202D00D1EAE23A
:10342000070021003800FEF7F1F9CBB20929EDD9E8
:103430000D9A94466344DBB2EAE780239B007078E0
:10344000194301362FE77078682800D1CDE1802339
:103450000136194327E770786C2800D1BFE180233B
:103460005B00194301361EE7462800D19BE1072285
:10347000099B0491073393430A9A19000392424629
:1034800002920CC908980092019309912A004B46B8
:103490002100FFF7CFFC01360500BCE62A006F1CB7
:1034A0004B46089D21002520A84701363D00B2E685
:1034B0008B0700D4ADE1099B2A009A466B1C984605
:1034C000534601CB21009A46089F4B46C0B2B847ED
:1034D0000A9B9C466544012B00D886E2089B474620
:1034E000B04626004C4699463A0023000137310089
:1034F0002020C847AF42F7D1A14653463400464684
:103500000993013687E6C046CD310010D45A002019
:103510004439011088390110D4390110099B04CBBA
:103520009B4643460992002B00D1C6E013789C4687
:10353000002B00D1BDE34346013B099A0133D0186B
:103540000A9F130001E0834203D05A780133002A16
:10355000F9D1099A0A979B1A0B9380230A00DB0082
:103560001A400C92194204D00B9B434501D94346A3
:103570000B9302231A000A400D920B4200D187E1FF
:103580006046002800D168E10C9B002B00D10DE1C2
:10359000A844C246099B57465B1B9846089BB24607
:1035A0002A0026004C46994609E023003100551CAC
:1035B000C8474346585D002800D126E12A009742BB
:1035C000F3D1A1463D00340056460D9B002B00D0A0
:1035D00043E15B46013609931DE6099B1A0008CAC0
:1035E0009246002B48D0212211438B460EA88446D8
:1035F0001F216144099500220F27A4460D0002E017
:10360000202A0CD00B003C001C4020003730092C35
:1036100000D807380132A85419090F2BF0D8644696
:10362000099D32E0DC4B2078089300239A4600285D
:1036300000D0E4E5002465E6434606000A9F9800B2
:10364000C01801324000801916780300300030386D
:10365000303B0928F3D93000984616000A9700E657
:10366000099B023604CB9046D2434046D217104005
:10367000804609933078F4E5102208009043113217
:103680001043834600224905B0D55B4606930823C4
:10369000059343460493102303930023029316AB30
:1036A000019200932A004B4621000898FFF7AEF8DC
:1036B0005346050001360993ADE513789C46002B6F
:1036C00000D1F7E202235B4237E7202302009A434E
:1036D000472A04D180231B0119430223984345281C
:1036E00001D1202319430722099B049107339343F7
:1036F0000A9A19000392424602920CC90898009255
:10370000019309912A004B462100FFF76DF901361C
:10371000050080E510230C930C230A009A430B92BA
:103720004B0503D501230B9A9A430B92692800D1CC
:1037300027E6642800D124E60B9A802311009B0021
:1037400019408B461A4200D066E1802311005B00CD
:1037500019408A461A4200D039E213005B0600D5B0
:103760003CE113001B0600D4A6E2099B04CB120423
:10377000120C934609935B46002B00D09AE10B9AFA
:103780001033110099430B91520500D492E10023AC
:103790009A460B9B06930A9B0593434604930C9B06
:1037A000039300230CE12023194360E6099B0A9A46
:1037B0005B1B98464B4691461F00B2462600089C6C
:1037C0002A003B003100A04743460135585D0028E0
:1037D000F6D14A463400B94656460A92F5E6C02369
:1037E0009B00B078194302365DE5C023B0781943D9
:1037F000023658E50C230A009A4314331A43103B4F
:103800000B920C934B058DD496E7A1463400564697
:10381000DBE60A9A012A00D853E26B1E9F18089B28
:10382000B04626004C4699462A0023000135310057
:103830002020C847BD42F7D1A14634004646099B27
:103840003A0001CB210098467D1C4B46089FC0B230
:10385000B847434601360993DDE40B9B0A9AA84614
:103860009A4200D8B5E694466544ED1A089B47464F
:10387000B04626004C4699463A00230001373100F5
:103880002020C847AF42F7D1A14634004646A0E603
:103890000B9A0A99531C914200D814E24B199B1AB7
:1038A0001F00089BB24626004C4699462A0023007A
:1038B000013531002020C847BD42F7D10A9BA146FF
:1038C00001330B93099B34001B7856469C46604697
:1038D000002800D058E67CE60722099B0733934373
:1038E000013294469C4462465F6809921A68FB174D
:1038F0001093119310981199030053400E930B00ED
:103900007B400F9394460E9A0F9B121A8B410E9296
:103910000F93FB0F6246129300233A439B463DD020
:103920000B9A6123920600D541230022DBB20EA937
:103930000A3B8C4692460D9343461F3262441395D0
:10394000159655460E9E0F9FA24690460C9C1493CA
:103950000CE03032D2B2434601355A55BB4500D156
:103960008AE1202D00D18AE106000F002200002309
:1039700030003900FDF788FFD2B2092AE9D90D9B42
:103980009C466244D2B2E6E7FF23099904C913407A
:103990001A00099117E5C0466D2700100B9A1033E5
:1039A000110099430B915205BAD500239A460B9BFF
:1039B00006930A9B0593434604930C9B0393129B27
:1039C00002935346019316AB2A00009321004B4605
:1039D0000898FEF71BFF013605001CE4FF22099B37
:1039E00002CB11408B460993C5E6534645460993E1
:1039F0000136FFF710FC56465C46AA46139DD6E7F3
:103A000008230C930B910B99642800D084E60B9B40
:103A10005B0500D586E6B4E40722099B0733934390
:103A2000013294469C44624609921A685B68100011
:103A30009B4613005A46134307D10B9A10331100CB
:103A400099430B91520500D5A1E60B9A612392068A
:103A500000D541230022DBB20EA90A3B8C469246D8
:103A60000D9343461F3262445F461295A346554666
:103A70000400B24690460C9E13930DE03032D2B251
:103A8000434601355A550023BB4200D100E1202DA9
:103A900000D100E104000F003200002320003900B3
:103AA000FDF7F2FED2B2092AE8D90D9B9C4662448A
:103AB000D2B2E5E70B9A6123920600D54123DBB22F
:103AC0000EA90A3B1F228C460D93230062445C46DC
:103AD0001295170055469B46B2460C9E08E03033BF
:103AE000DBB201357B55B4420ED3202D0CD004003F
:103AF00031002000FDF78AFECBB20929EFD90D9ADB
:103B000094466344DBB2ECE756465C46AA46129DF7
:103B10003FE6099B1A0008CAD91713925A184A405F
:103B20009246DA0F1292002B08D1802310220B99B3
:103B3000DB000B4091430B91002B2BD10B9A61239F
:103B4000920600D541230EAA1F279446DBB20A3BFA
:103B50000D9567445D460993A3465446B2460C9EB4
:103B600008E03033DBB201357B55B4420ED3202D53
:103B70000CD0040031002000FDF748FECBB209292B
:103B8000EFD9099A94466344DBB2ECE756465C46AB
:103B9000AB460D9D0B9B2A0006930A9B21000593C3
:103BA000434604930C9B08980393129B013602939F
:103BB0005B46019316AB00934B46FEF727FE139B23
:103BC00005000993FFF727FB02230C931AE7099BD3
:103BD00004CB92461293002A08D1802310220B991D
:103BE000DB000B4091430B91002B2BD10B9A6123EF
:103BF000920600D541230EAA1F279446DBB20A3B4A
:103C00000D9567445D460993A3465446B2460C9E03
:103C100008E03033DBB201357B55B4420ED3202DA2
:103C20000CD0040031002000FDF7F0FDCBB20929D3
:103C3000EFD9099A94466344DBB2ECE756465C46FA
:103C4000AB460D9D0B9B2A0006930A9B2100059312
:103C5000434604930C9B08980393002302935B460E
:103C6000019316AB00934B46FEF7D0FD129B050067
:103C700009930136FFF7CFFAB44200D871E6149BDE
:103C800054460E960F97AA469846159E139D8EE6AB
:103C9000A64200D8FBE6139B56469846AA465C46C9
:103CA000129D76E508C9D8171A1842400991FFF706
:103CB0008AFB00230B9350E4099B04CB93460993A2
:103CC00059E52F00BBE50B9301E6063B0C939AE602
:103CD0000CB410B584B006AC08CC0A000094010006
:103CE00004480394FFF772FA04B010BC08BC02B099
:103CF0001847C0466527001000B583B00093130035
:103D00000A0001000248FFF761FA03B000BDC04697
:103D10006527001010B5094A0300146884B0002C10
:103D200008D0012200910648524203A9A047012071
:103D300004B010BD00F06AF90020F9E7D45A002061
:103D4000D929001000BEFDE7094A030010680028C9
:103D500005D00849C3188B4207D81360704706483E
:103D60000449C31810608B42F7D901204042F5E79F
:103D7000C05A002000000420745C002010B5FFF73A
:103D8000E1FFC04670B5FDF7E9FB074D074EB542B0
:103D900009D20024013E761BB60808CD98472300BF
:103DA0000134B342F9D170BD1C3801102438011020
:103DB000030010B5080011001B68984710BDC046ED
:103DC000F0B546464F46D646C0B5437D80460E0008
:103DD0001700002B46D0002A3FDD4B1E9946244B8E
:103DE0000125002400209A460DE04B461B5D0D3B4B
:103DF0005A425341325DDBB20A2A0BD02B00013408
:103E000001359F421ADD002CEFD14346325D1B7D08
:103E10000A2AF3D1002BF1D1A04204DA4346211A39
:103E20001B6830189847434650461B680221984744
:103E3000013428002B0001359F42E4DC874204DD79
:103E40004346391A1B6830189847F619013E3378F3
:103E50000D3B5A42534142461375E0BCBA46B14647
:103E6000A846F0BD0368110030009847F5E7C0464A
:103E7000783B0110F0B5DE4657464E464546E0B564
:103E800085B017001C0006000D00FDF76BF800233D
:103E9000314A12184B41002B59DB304908008A4641
:103EA0000FF096FC01906B1C03D130000EF0D4FF94
:103EB0000500002C26D12A4B98462A4B1C68002C62
:103EC00015D0002F21D1284F02E02469002C0ED0FC
:103ED0002368002BF9D03B68002B01D0A342F4D11A
:103EE00020002A003100C0472469002CF0D1019B3A
:103EF000002B28D1280005B0F0BCBB46B246A9462D
:103F0000A046F0BD194B9846D7E7174B994602AB30
:103F1000DF1D0A239B4602E02469002CE7D02368BA
:103F2000002BF9D04B461B68002B01D0A342F3D1E4
:103F30002A0031002000C0475B46012239002000E2
:103F40003B70C047E8E750460FF02AFCD2E7012259
:103F5000074B5242A1E7C04640420F00840C0020AC
:103F6000B13D0010685A00206C5A0020C13D00107D
:103F7000FFFFFF7FF0B5CE46474680B583B06B4666
:103F80000600DD1D2870FCF7EDFF00231A4A121809
:103F90004B41002B2BDB1949080088460FF018FC19
:103FA000174B81461C68002C14D0164F02E0246980
:103FB000002C0FD02368002BF9D03B68002B01D0D8
:103FC000A342F4D1200001222900FFF7F9FE246961
:103FD000002CEFD14B46002B05D1300003B0C0BC04
:103FE000B946B046F0BD40460FF0DAFBF5E70122D6
:103FF000054B5242CFE7C04640420F00840C0020E0
:10400000685A00206C5A0020FFFFFF7F70B5040043
:104010000EF022FF01230100050001222000FFF71E
:1040200029FF084B1C68002C06D06368002B05D0C4
:1040300098472469002CF8D1280070BD2469002C11
:10404000F3D1F9E7685A0020014B18687047C04661
:104050007C3B0110F0B5454657464E46DE46E0B57E
:1040600089B0129D0400894690461F00002D68D03B
:1040700050239A46AA44504601F04EF8002860D0DA
:10408000002C5ED0236864269B46002B07D03000AE
:1040900009B0F0BCBB46B246A946A046F0BD4846B2
:1040A00007F07EFA00284ED04346002B49D0002F5F
:1040B00047D05B46079307AB05935B460493039396
:1040C0002B006A46583343CB43C253463900484617
:1040D0002A6D5B6807F008FB00284DD1C82101203C
:1040E0002A6EEB6D9847206000284CD0484607F0B8
:1040F0008DFA2B0064332668079A009341462B0003
:1041000001F086F9C4222368B050985800282BD0BB
:104110007033190001F07EFA061E16D14823246878
:10412000EA5C7033E254290070222000FEF7CCFADA
:104130004B461A68C023E250296E07986B6D98476A
:10414000A5E70B26A3E7C826A1E72368002B11D01B
:10415000C4269A59002A07D0484607F057FA236820
:10416000995901F067FA23681800296E6A6D904723
:10417000002323600126DFE703000222673B93430D
:1041800003D00A28F6D10A26D6E76726D4E7C04628
:1041900070B51A4D8AB05022194902AC06002800A9
:1041A000FEF792FA200000F0ADFF2B00503307CC51
:1041B00007C306CC06C36C46200001F04DF82B0067
:1041C000643306CC06C36A46272400231219100064
:1041D000137007F025FA00280CD16B461B191A78CA
:1041E0006C232900EA5430007022FEF76DFA30008B
:1041F0000AB070BD00F0BCFF0022F1E7F0520020D1
:10420000803B0110F8B504000D001600002819D0FD
:104210000368002B16D0C427DA59002A12D0C02216
:10422000985806F0CDFD00280CD02368D8590028F6
:1042300008D0002D09D03200290001F081F8431E7A
:10424000984101E096204000F8BD0B20FCE7C046F5
:1042500070B5041E12D00368002B0FD0C4255A5924
:10426000002A0BD0C022985806F0AAFD002805D0DD
:1042700023685859431E9841C0B200E0002070BD29
:10428000002808D00368002B05D0C4229858431E8C
:104290009841C0B270470020FCE7C04630B503002B
:1042A00085B00800002B3DD01A780A2A3CD81F4957
:1042B00092008A5897465A6B016A92005258002021
:1042C000511E8A4139215A5405B030BD5A6B0168DC
:1042D000F3E75A6B8169F0E75A6B8168EDE75A6B37
:1042E0000169EAE75C6825002300220021004335CC
:1042F000029542340135413340321031019500942A
:1043000009F05AFAE0E75C6825002300220021004A
:10431000233522342133203210310195009409F0E5
:10432000A7FCD1E70B20CFE70120CDE7D03B011060
:10433000F0B5C64600B5040098B0002800D19CE056
:1043400003780A2B00D95AE1AE4A9B00D3589F4606
:10435000436B0A6A9B009B58002B08D0210082689F
:104360001031406807F068FB051E00D09DE0002575
:1043700084E0436B0A689B009B58002BF7D0816850
:10438000002340680AAA07F051FD051EEFD09223D2
:10439000FF33984216D10022593BFF3BE2546DE0B7
:1043A000436B8A699B009B58002BE0D00100826818
:1043B0001031406806F07AFC051ED8D0F623FF3392
:1043C00098425BD000F0D4FE58E020234068C35CE4
:1043D000002B00D071E02223C35C002B00D09DE0B5
:1043E0002123C35C002BC2D010300AAA04A909F013
:1043F00055FB051EE6D160680AA909F015FD051EEA
:1044000000D1E5E008200121285609F0A5FC0600AE
:10441000032800D0CEE028001822583004A9FEF767
:1044200053F92E72002529E042234068C35C002B1B
:104430005CD1C369002B03D04023C35C002B22D185
:104440004423C35C002B00D082E04323C35C002BD9
:104450008DD0C26A0AA9103009F062F8051EB1D1E8
:104460000E9A0F9B606809F02BFD002800D17EE7B3
:10447000232301220025C25400E00B25280018B098
:1044800080BCB846F0BD816A103009F0DDF8051E29
:1044900000D097E76068816A09F0C6FC002802D066
:1044A00022230122C2546068CAE7574B984200D0C9
:1044B00088E739230022E254E0E709F089FC061E70
:1044C000606800D187E731007060F26910302831F0
:1044D00009F00EFA051E00D08AE030001022F169C2
:1044E0000930FEF7F1F83572606874E7103004AAFD
:1044F0000AA908F091FF051E00D063E70E9A0F9BF2
:10450000606809F0CBFC002806D020230122C254A9
:104510006B461A7C2123C25460688AE7103004AAD3
:104520000AA909F06DFA051E00D04BE7606804A9DE
:1045300009F07AFC051E06D0182240300AA9FEF7C1
:10454000C3F802232B72222300226068C25447E77B
:1045500002000AA93032103009F02CF8051E00D0F4
:1045600030E70E9A0F9B606809F0BCFC061E3DD038
:10457000012383846068836B002B00D165E72523CA
:104580000025984601276B00416B5B19DB00C918B9
:1045900009F04AFC002807D043466068F754836B53
:1045A0000135AB42EFD850E760680135836BAB4211
:1045B000E9D84AE76468102206A96846FEF784F83D
:1045C00003212000049A059B09F000FD002555E712
:1045D0006468102206A96846FEF776F802212000DA
:1045E000049A059B09F0F2FC002547E760682CE778
:1045F0003100606809F0FEFB00F0BAFD3EE70125DE
:104600003CE7C046FC3B011059020000F0B5C6462D
:10461000030000B500282BD0002929D00200442037
:1046200084460138002480462427383209E0092DC9
:1046300018D0507800281CD1013440334032A142B8
:1046400017D01078002814D01D78082DEFD15E689F
:10465000356C2D020DD16046305C002809D14046F2
:10466000305CE7E75D682E6A002E02D1E85DE1E785
:10467000002080BCB846F0BDF0B5C64600B50400C9
:1046800084B0002800D19CE04378002B0FD1037840
:10469000082B68D0092B1AD03922825C002A08D056
:1046A0000A2B00D95DE1B0499A008A589746012B40
:1046B00005D00024200004B080BCB846F0BD0378CB
:1046C0000A2B00D94DE1A9499A008A58974624231C
:1046D0004068026AC35C002A00D0CEE0002BE8D01C
:1046E00003E0486809F086FB606809F0C7FB011E1B
:1046F000F7D124236068C154C2E0A068A16A266B88
:10470000062B00D1DAE0072B00D125E12500B047C8
:104710001035A26A6068290007F0D8F90400002C5F
:10472000C8D000F025FDC5E72100A068236B10313B
:104730009847BEE7A068236B9847BAE7606807F020
:104740009DFE8B4B04009842E9D1B2E73923E35C2C
:10475000E16A226B002B00D1ADE0A0689047A8E78A
:10476000236B9847A5E74068036C1B0207D14433CD
:10477000C35C002B03D14333C35C002B99D042238D
:10478000C35C002B20D0202300279846212609F067
:10479000BBFB051E17D04346EF54636828009B6996
:1047A000E26AA95D9847AB5D002B00D190E028003C
:1047B00009F0F2FA002800D08AE001232B72606829
:1047C000E5E70B2476E760684023C35C002B13D039
:1047D000C568002D2BD022260027AB5D002B08D00A
:1047E000C369AF55002B04D0816AE26A280098475C
:1047F00060682D68002DF0D14423C35C002B16D0D7
:10480000C568002D13D02523242600279846AB5DCC
:10481000002B09D0436AAF55002B05D04146280034
:10482000E26A695C984760682D68002DEFD14323E8
:10483000C35C002B00D13CE7232700260BE0636814
:104840002800D96AE26A1B6AEE5598476068290019
:1048500009F0D0FA606809F067FB051EEFD128E780
:104860003922825C036B002A2FD10020984720E771
:10487000406884E724234068C35C002B00D034E701
:104880002023C35C002B34D03A4E002109F0E6FA15
:10489000051E2BD063682800E16A9B699847B042E7
:1048A0001CD00021280009F04FFB6068290009F0A6
:1048B000A1FA6068E9E700209047FAE62500103584
:1048C0000A002900B04724E7236BA0689847F0E668
:1048D0006068290009F08EFA606858E70121280015
:1048E00009F032FB01232B726068CEE72023606859
:1048F000C5542123C35C002B00D1DAE6C568002D26
:1049000026D02526022702E02D68002D20D008237E
:10491000EB56032BF8D1C369E16A28009847A855E4
:10492000002804D0280009F02FFB6068ECE76368DA
:1049300029009846102260316846FDF7C5FE012126
:104940004046AA6DEB6D09F041FB2F726068DBE712
:1049500021230022C254ACE62500E26AB04710359C
:10496000D7E60124A6E6C046283C0110543C0110BD
:104970002103000034080000F0B504000F00160009
:104980001D00B3B000284BD0002949D0180000F01A
:10499000C3FB002844D0002E42D0902223490EA809
:1049A000FDF792FE90220EA92000FDF78DFE6846CD
:1049B0006760E66007F0A6FE2000342269461830E2
:1049C000FDF782FE00231A4A296922676367656141
:1049D0002B68B0019847A060002824D0002500E093
:1049E000A068AB013100C018013500F043FAAE42B7
:1049F000F6D120004C3000F031FA80220D4BA3504C
:104A000000230432A350A268002A07D06269002A5A
:104A100004D0E268002A01D08822A354002000E0DC
:104A20000B2033B0F0BD0A20FBE7C046B03C0110BC
:104A300000CA9A3B0D460010F0B5C64600B504000A
:104A400006A800788046002C28D0002926D0002A0D
:104A500024D0002B22D02669E5680120AE4202D383
:104A600080BCB846F0BDB501AC46A56800276544DA
:104A70002B63434628872F706960AA606B70EF62D2
:104A80002500013618352800266107F045FE00286C
:104A900006D1E36C00200133E364E1E70B20DFE79C
:104AA000280007F043FE0028F3D0D9E770B5041EB4
:104AB0001ED000291CD00369C2680120934200D394
:104AC00070BDA2689D01521951600221250011801C
:104AD0000021013318351087D1622800236107F0C7
:104AE0001BFE002806D1236D002001332365E7E774
:104AF0000B20E5E7280007F019FE0028F3D0DFE7D8
:104B0000F0B5CE46474680B5040099B000283BD0AA
:104B100006001836300007F0FFFD0025002805D0FC
:104B2000280019B0C0BCB946B046F0BD300007F04F
:104B3000FDFD002825D104AF3D000AA807F0E2FDE5
:104B400034220AA93000FDF7BFFD236D60699C4641
:104B5000636EE16C98468CC88CC588C888C560684F
:104B600063460390A06E42460290A06D0190606D76
:104B70000090300008F008F9051ED1D000F0F8FAD6
:104B8000CEE700F0F5FAD6E70B25C9E7F0B54E46BB
:104B90004546DE465746E0B504009046994683B048
:104BA000002800D18EE0406806F00AF9002839D0CC
:104BB000260020001836FFF7A3FF300007F098FE0C
:104BC000071E00D07BE0E3680025002B1ED03823B1
:104BD0009A46A04B9B46A368AA019B1852469A5C32
:104BE000002A13D01A780A2A1CD8594692008A58EB
:104BF00097461A0030005968343208F0EDF90190F8
:104C0000002823D1E3680135AB42E4D84B46424645
:104C1000300008F011FA8823E35C002B00D1B6E0E5
:104C2000012B51D000F0A4FA0127380003B0F0BCEA
:104C3000BB46B246A946A046F0BD1A0030005968EE
:104C4000343208F099F901900028DBD000F090FA96
:104C5000019FEAE71A0030005968343207F018FE65
:104C600001900028CED0F1E71A00300059683432A4
:104C700008F04CF901900028C4D0E7E71A00300092
:104C80005968343208F012F901900028BAD0DDE7F3
:104C90001A00596830003432103108F08BFF01904F
:104CA0000028AFD0D2E71A00596830000023343210
:104CB000103108F00FFD01900028A3D0C6E700F0E6
:104CC00057FAB2E70B27B0E70022A368E1689C46D9
:104CD0000025904600291CD0383291469222FF329E
:104CE00092460EE03100FFF7D9FA051E01D050457B
:104CF0004BD101239C46E168E044A368884500D37A
:104D00009EE09C46434698014B466044C35C002BA2
:104D1000E8D18423E258043B6046E35898470028D2
:104D200033D00022E3689046002B2ED038239946DA
:104D30009223FF339A460CE03100FFF7F9FA051E83
:104D400001D0504521D101239C46E368E0449845B9
:104D50007AD243464A469801A3681818825C002A12
:104D6000EAD138220026904609E0FFF785FC051EAF
:104D70000BD1E36801369E4200D356E7A368B00129
:104D800018184346C35C002BEFD12F004DE70022DB
:104D9000A368E1689C460025904600291BD0383264
:104DA00091469222FF3292460DE03100FFF776FAEB
:104DB000051E01D05045E8D101239C46E168E0443E
:104DC000A36888453ED29C46434698014B466044C2
:104DD000C35C002BE9D18423E258043B6046E358CE
:104DE00098470028D1D00022E3689046002BCCD011
:104DF00038239A469223FF339B4616E03100FFF793
:104E000097FA002804D0584502D0134B98421FD17E
:104E1000A0684844FFF730FC051EB6D101239C462C
:104E2000E368E044984500D3FFE643469B0199467A
:104E30005346A0684844C35C002BDFD12F00F4E642
:104E40009C4666E79C46C6E7002B9ED0A36888E791
:104E50000700EAE6803C01105902000010B5002866
:104E600005D020220021FDF729FC002010BD0B20D9
:104E7000FCE7C04600280BD00B23038000234163CE
:104E8000436083608362C3620363038700207047CB
:104E90000B20FCE7F0B5C64600B506000F009046B3
:104EA0001C0086B0002835D0002B33D006F034F932
:104EB00023006A4605900C3303CB03C205A8216882
:104EC0006268A36806F02AF9051E1CD102AD28000D
:104ED00005F06EFF3300380006CD06C333004146AF
:104EE00005AA05F0E7FF051E16D1310022000320B8
:104EF000B4600C3107F01CF8051E0DD105A806F0B2
:104F000061F9002801D000F033F9280006B080BC18
:104F1000B846F0BD0B25F8E700F02AF905A806F021
:104F200051F90028F1D0EEE7F0B54746CE4680B5FE
:104F300004000E00170098469FB0002827D00029D3
:104F400025D0002A23D0002B21D002AD280006F066
:104F5000B3F923002A0003CA03C31000914606F0E8
:104F600085FB280006F0A8F9230006CD06C34B46B2
:104F7000200000933A004346310006F0A5F9041ED4
:104F800007D120001FB0C0BCB946B046F0BD0B240D
:104F9000F7E700F0EDF800F0EBF8F2E7F0B5C64601
:104FA00000B504000D0016001F009EB0002824D09C
:104FB000002922D0002A20D0002B1ED0FFF744F871
:104FC00002AB984620601800FFF7E2F850220C4927
:104FD0004046FDF779FB43462000009332003B003A
:104FE0002900FFF737F8041E04D120001EB080BC52
:104FF000B846F0BD00F0BCF8F7E70B24F5E7C04673
:10500000403D0110F0B5C64600B504000D00160085
:105010001F00A0B0002824D0002922D0002A20D0D0
:10502000002B1ED006F028FE02AB98462060180028
:1050300006F0D4FE50220C494046FDF745FB43469E
:105040002000009332003B00290006F01BFE041EE6
:1050500004D1200020B080BCB846F0BD00F088F834
:10506000F7E70B24F5E7C046903D0110F0B5CE46BA
:10507000474680B506000D00904699468BB0002843
:1050800024D0002922D007F035F9012303AF306086
:1050900038000893AC6829008CCC8CC00CCC0CC0B8
:1050A000129B2A000293434600934B4630000C317A
:1050B000019307F025F9041E05D120000BB0C0BCF8
:1050C000B946B046F0BD00F053F8F6E70B24F4E71C
:1050D00010B5FDF7C1FA10BD10B5FDF7D1FA10BD3E
:1050E00010B5FDF7DFFA10BD10B5FDF7A3FA10BD3E
:1050F000020030B5024B32CB32C212CB12C230BDED
:10510000E03D0110020030B5024B32CB32C212CB6F
:1051100012C230BDE001002000280DD00368002B32
:105120000AD04368002B07D0C368002B04D08068E6
:10513000431E9841C0B200E000207047084B1B7826
:10514000002B09D0074B1A78002A02D0064B18789A
:10515000704701321A70F9E7044B1878F8E7C04637
:105160006F5C0020705C0020AC5A002030380110C9
:105170000021084B00201980002100229860D9608E
:10518000054B06491A700978054B1970054B1A70C2
:105190007047C046D8530020705C00209046011034
:1051A000AC5A00206F5C002070B5040084B0002869
:1051B0001BD069460120FBF765F900281BDB01992C
:1051C0000220009E00290EDB029D002D0FDB002334
:1051D0000A4A3000FDF73CF92A00EB1780185941C4
:1051E00020606160002004B070BD0B20FBE733003D
:1051F0000B43F8D0EBE70220F5E7C04600CA9A3B24
:1052000070B5040084B000281BD069460020FBF76D
:1052100039F900281BDB01990220009E00290EDBD2
:10522000029D002D0FDB00230A4A3000FDF710F924
:105230002A00EB178018594120606160002004B0FB
:1052400070BD0B20FBE733000B43F8D0EBE70220E7
:10525000F5E7C04600CA9A3B00230360037170471C
:1052600010B5002A12D0002B10D0029C002C0DD0BB
:10527000039C002C0AD0064C20700020E360029BA7
:1052800061602361039BA260636110BD0B20FCE79A
:10529000145B002070B5244B244C1A7B05000E00D3
:1052A000A544002A02D01C68002C1DD1802268462B
:1052B0001F4B92001978815459688C328150D868FC
:1052C00019695A699B689B909C919D9200216A463E
:1052D00000209A9300F020FA002815D0A4239B0008
:1052E0009D4470BD00281CD1A8239B009C46A0684B
:1052F00032002900604402F019F96468002CF1D1F1
:1053000001235840C0B2E9E7320029009EA802F00C
:105310005BF90400684602F0DFF801235C40E0B26C
:10532000DCE70020DAE7C046445B002070FDFFFFA9
:10533000145B002010B5C96F02F086FF10BDC04697
:10534000F0B504000D008FB0002855D0002953D0CF
:10535000006800F0B5FD00284ED06668002E4BD0E6
:10536000B469280023699847F26903000590002A70
:1053700002D005A89047059B8027F2591069A82202
:105380009200944600937269B16F604406AB04F0DA
:1053900027FA00281ED0A368280006A99847336A78
:1053A00005000400002B01D006A8984780237A222C
:1053B000F358B25C1869012A21D0A8239B009C46AF
:1053C000F16F604402F040FF2840C4B201235C400A
:1053D000E0B212E0F3591869A8239B009C460B4BDE
:1053E00002960193059B604400937269B16F06AB0E
:1053F00004F026FA0028CED101200FB0F0BDA8237A
:105400009B009C46604402F0EFFADFE73553001042
:10541000F0B545464E46DE465746E0B5884605009F
:1054200091461C0089B0002800D1DAE0002900D1A3
:10543000D7E0006800F044FD002800D1D1E04B46E1
:10544000002B00D1CDE01B78002B00D1C9E0002C4F
:1054500000D1C6E06A486F6809F0EAFA002800D176
:10546000BFE085682E008436756009F093FB8423C5
:10547000E85018339A46AA4453464846B3600DF0A4
:10548000EBFC01303C2800D9A3E04B463C215D4AAF
:105490005046FEF71DFC8023EF50FA2328009B00A6
:1054A0005022EB6721002830FDF70EF9237A3A6984
:1054B000022B00D19EE0DE239B00D358AB67002374
:1054C00040465149EB612B6200F00AFD002800D1F3
:1054D0007FE04268AA61002A7BD023004946380059
:1054E00009F0ACFD6862002878D03A69474BD05A81
:1054F000411CD152032101F0F5FFE1223B699200EA
:10550000995880239946EB5828611869A8239B0075
:105510009C460623904600934A789B460B781202DD
:105520001A438B78C9781B041343090619432A6967
:105530007B69604401F0B4FDE32341460200386911
:105540009B00C358415800F035FC002841D03A690F
:105550002F4BD05A411CD152052101F0C3FFA82185
:105560004A4689008C46AB5841461B6968611A005F
:105570003B696244595806A88946696A05928A4679
:10558000210000F039FC5946069A0391019202A9C4
:105590008A8A514601AB9A800B69494600934A7842
:1055A0000B7812021A438B78C9781B04134309063F
:1055B00019436A692B69059801F0DEFDE323414632
:1055C000020038699B00C358415800F0F3FB0028E3
:1055D00008D1686A002801D000F0D4FA300000F049
:1055E00069FA0026300009B0F0BCBB46B246A946B5
:1055F000A046F0BDDF239B00D358AB675FE7C046F2
:10560000005B0020283E0110F43D011098150000B9
:105610009A150000030010B50800002B08D00029DF
:1056200006D0596850222831FDF74EF8002010BDF1
:105630000B20FCE7F0B5D6464F46464604000D0069
:10564000C0B5002804D0006800F03AFC002806D15C
:1056500001242000E0BCBA46B146A846F0BD63680C
:10566000002BF5D0002DF3D0286800F029FC00288D
:10567000EED06C68002CEBD08027E359606A984626
:1056800009F03CFDE359E2261869A8239B009C46DB
:10569000B600815960444A780B7812021A438B781D
:1056A000C9781B04134309066269194301F044FCDD
:1056B000E35982461869A8239B009C46815960449F
:1056C0004A780B7812021A438B78C9781B0413436B
:1056D00009062269194301F02FFC434604001869AA
:1056E000E4239B00994652468159C35800F062FB5F
:1056F0004346070018694B462200C358815900F001
:1057000059FB3840040001235C402800E4B26400E7
:1057100000F0D0F99DE7C046030010B51000002B43
:1057200001D010331800002906D0496901F090FE1D
:1057300001235840C0B210BD014B5968F6E7C0467E
:10574000145B0020F0B5C6460500170000B5002A1E
:1057500018D0037B002B15D1036043600223FF3375
:1057600083810023C8220C00002698468260210015
:10577000280009F071F943460136A4602373C83448
:10578000B742F4D180BCB846F0BDC046F0B5C646BD
:105790000500170000B5002A18D0037B002B15D197
:1057A000036043600223FF3383810023C8220C007F
:1057B0000026984682602100280009F04DF94346F2
:1057C0000136A4602373C834B742F4D180BCB84614
:1057D000F0BDC046F0B5C6460500170000B5002A6A
:1057E00018D0037B002B15D1036043600223FF33E5
:1057F00083810023D8220C00002698468260210075
:10580000280009F029F943460136A4602373D834EF
:10581000B742F4D180BCB846F0BDC046F0B5C6462C
:105820000500170000B5002A18D0037B002B15D106
:10583000036043600223FF3383810023D8220C00DE
:105840000026984682602100280009F005F94346A9
:105850000136A4602373D834B742F4D180BCB84673
:10586000F0BDC046F0B5C6460500170000B5002AD9
:1058700018D0037B002B15D1036043600223FF3354
:1058800083810023A4220C00002698468260210018
:10589000280009F0E1F843460136A4602373A434DC
:1058A000B742F4D180BCB846F0BDC046F0B5C6469C
:1058B0000500170000B5002A1AD0037B002B17D172
:1058C000036043600223FF33838100230C00002622
:1058D0009846094A82602100280009F0BDF8434635
:1058E0002373054B01369C46A4606444B742F2D151
:1058F00080BCB846F0BDC046A8150000F0B5C6464D
:105900000500170000B5002A18D0037B002B15D125
:10591000036043600223FF33838100231C220C00B9
:105920000026984682602100280009F095F8434639
:105930000136A46023731C34B742F4D180BCB8464E
:10594000F0BDC046F0B5C6460500170000B5002AF8
:105950001CD0037B002B19D1036043600223FF336B
:105960008381002384220C00002698461201826065
:105970002100280009F070F84346237384231B019B
:105980009C460136A4606444B742F1D180BCB8465D
:10599000F0BDC046F0B5C6460500170000B5002AA8
:1059A00018D0037B002B15D1036043600223FF3323
:1059B000838100232C220C0000269846826021005F
:1059C000280009F049F843460136A46023732C34BB
:1059D000B742F4D180BCB846F0BDC046F0B5C6466B
:1059E0000500170000B5002A18D0037B002B15D145
:1059F000036043600223FF33838100231C220C00D9
:105A00000026984682602100280009F025F84346C8
:105A10000136A46023731C34B742F4D180BCB8466D
:105A2000F0BDC046F0B5C6460500170000B5002A17
:105A300018D0037B002B15D1036043600223FF3392
:105A40008381002320220C000026984682602100DA
:105A5000280009F001F843460136A460237320347E
:105A6000B742F4D180BCB846F0BDC04610B5034B78
:105A70000100180008F0F0FF10BDC046445B002094
:105A800070B504000068002806D0084B19680DF0B6
:105A900097F9002809D120606168002905D0002508
:105AA00003480D6108F0D8FF656070BDB84801106B
:105AB000DC5A002010B504000068002806D0084B0E
:105AC00019680DF07DF9002808D12060616800296F
:105AD00004D0044808F0C0FF0023636010BDC04636
